:100AEB00454C454354524F2D50415353494F4E00A3
:100AFB005265616C2054696D6520436C6F636B00AC
:100B0B0054696D653A00446174653A00504D00417B
:100B1B004D004D4F4E005455450057454400544829
:0E0B2B005500465249005341540053554E00A8
:0A0DF100010F0001110FC101C182C2
:040CCD007F017E0025
:100CD100E4FDFCC3ED9FEC9E5015E4FBFA0BBB0059
:0F0CE100010AEB646E4A70F50DBD00010C80E452
:010CF00022E1
:100B8100EF540FF9EF54F0FFE5B07003EF60047F0D
:100B91000180027F008FB0D2947F027E00120CD1BF
:100BA100C294E5B07006E9C454F060047F0180028C
:0F0BB1007F008FB0D2947F027E00120CD1C294CD
:010BC0002212
:090CA6007C00120A30EF2430FF3B
:100CAF008F17D296E50F6005120B81800A8517B05A
:0E0CBF00D294120CCDC2947F057E00020CD19F
:040BC1008E188F19E2
:100BC5007D64120CA6AE18AF197C007D64120A3044
:100BD5008C188D19AE18AF197D0A120CA6AE18AF78
:100BE500197C007D0A120A308C188D19E5192430FC
:040BF500FF020CAF40
:020D78008F8268
:100D7A00EF54F0C4540F2430FF120CAFAF82EF547B
:070D8A000F2430FF020CAF43
:100D14008F13C296E50F6005120B81800E8513B008
:100D2400D2947F027E00120CD1C2947F057E000211
:020D34000CD1E0
:100A85008F12C295E4F5B07F32FE120CD17F301281
:100A95000D147F057E00120CD17F30120D14120C3F
:100AA500CD7F30120D14120CCDE512B4040F7F204A
:100AB500120D14120CCD750F017F288012E512B4AA
:100AC50008107F30120D14120CCDE4F50F7F38128B
:100AD5000D147F01120D147F06120D147F80120D67
:060AE500147F0C020D1449
:060C53008B128A138914C4
:100C5900E4F515F516AB12AA13A9148516828515A4
:100C690083120A03FF600D120CAF0516E51670E535
:040C7900051580E1FC
:010C7D002254
:050DFC007F01020D144F
:100D91001DBF01057512808006BF02037512C0EDEB
:080DA1002512F512FF020D14EA
:060D36008F1A8D828C83F0
:100D3C00E4F51BE51BC3951A50107F18120D14AF68
:0A0D4C0082AE83120CD1051B80E972
:010D5600227A
:060D57008F1C8D828C83CD
:100D5D00E4F51DE51DC3951C50107F1C120D14AF3D
:0A0D6D0082AE83120CD1051D80E94F
:010D77002259
:060DC100EE25E0FED291D8
:0B0DC700E4FFEFC3951150030F80F70D
:010DD20022FE
:0F0DD300D290D291120DC7C290120DC7C29122B9
:0F0DE200C290D291120DC7D290120DC7C29122AA
:020C2700AE0716
:100C2900E4FBFAEE339290120DC1C2910BBB0001A5
:100C39000AEB64084A70ECD290D291120DC7A290C7
:090C49009200120DC7C291A20035
:010C5200227F
:100CF100E4FED290FD120DC1A290E4334206120D22
:100D0100C7C2910DBD08EEC290D291120DC7C2911A
:020D1100AF062B
:010D130022BD
:100DA900530760EF6003BF20037F0222BF40037F28
:080DB9000022BF60027F01224D
:100B3900AC07A903E515B40C12A203300201B340B6
:100B49000543046080164304408011E515B4180379
:100B59005304BF80077FD0120C275005120DD38094
:100B6900F4E4FF120C27AF01120C27AF05120C2772
:080B7900AF04120C27020DE28B
:100BF900AC07A90380077FD0120C275005120DD32B
:100C090080F47F03120C27AF15120C27AF04120CC6
:0E0C190027AF05120C27AF01120C27020DE2C7
:020C7E00AD07C0
:100C800080077FD0120C275005120DD380F4AF05DA
:100C9000120C27120DD37FD1120C27120CF1AE07C4
:050CA000120DE2AF0699
:010CA500222C
:100800007F04120A857BFF7A0A79EB120C53A2024D
:10081000920375150CE4FB7D597F12120B39751587
:10082000057B167D047F15120BF97D017F02120DE9
:10083000917BFF7A0A79FB120C537FE87E03120C3E
:10084000D1120DFC7BFF7A0B790B120C537D017FCB
:1008500002120D917BFF7A0B7911120C53E4FF12F7
:100860000C7E8F0B7F01120C7E8F0D7F02120C7E8F
:100870008F0C7F03120C7E8F0E7F04120C7E8F086C
:100880007F05120C7E8F097F06120C7E8F0A7D0673
:100890007F01120D91E50C541FF510FF7E00120D23
:1008A000787F3A120CAFAF0D7E00120D787F3A12AE
:1008B0000CAFAF0B7E00120D78AF0C120DA9BF016B
:1008C000087BFF7A0B7917800EAF0C120DA9EF7021
:1008D000097BFF7A0B791A120C537D067F02120DE9
:1008E00091AF087E00120D787F2F120CAFAF097EFA
:1008F00000120D787F2F120CAFAF0A7E00120D7818
:10090000E50E14B40700505E90091675F003A4C5F7
:100910008325F0C5837302092B02093302093B02C8
:10092000094302094B02095302095B7BFF7A0B79E9
:100930001D802E7BFF7A0B792180267BFF7A0B7935
:1009400025801E7BFF7A0B792980167BFF7A0B7935
:100950002D800E7BFF7A0B793180067BFF7A0B7935
:1009600035120C538007AF0E7E00120D787FE87EA3
:0709700003120CD102085D27
:030000000209777B
:0C097700787FE4F6D8FD7581200209BEEF
:100A0300BB010CE58229F582E5833AF583E02250A8
:100A130006E92582F8E622BBFE06E92582F8E222F2
:0D0A2300E58229F582E5833AF583E493220C
:100A3000BC000BBE0029EF8DF084FFADF022E4CCAA
:100A4000F875F008EF2FFFEE33FEEC33FCEE9DEC73
:100A5000984005FCEE9DFE0FD5F0E9E4CEFD22EDB9
:100A6000F8F5F0EE8420D21CFEADF075F008EF2F03
:100A7000FFED33FD4007985006D5F0F222C398FDF4
:050A80000FD5F0EA2291
:10098300020800E493A3F8E493A34003F68001F282
:1009930008DFF48029E493A3F85407240CC8C33375
:1009A300C4540F4420C8834004F456800146F6DF44
:1009B300E4800B0102040810204080900DF1E47ED6
:1009C300019360BCA3FF543F30E509541FFEE49339
:1009D300A360010ECF54C025E060A840B8E493A300
:1009E300FAE493A3F8E493A3C8C582C8CAC583CA2B
:1009F300F0A3C8C582C8CAC583CADFE9DEE780BEE3
:010DFB0000F7
:00000001FF
